{
  "contractName": "Authorize",
  "abi": [
    {
      "constant": true,
      "inputs": [],
      "name": "creator",
      "outputs": [
        {
          "name": "",
          "type": "address"
        }
      ],
      "payable": false,
      "stateMutability": "view",
      "type": "function"
    },
    {
      "constant": true,
      "inputs": [],
      "name": "ballotAddress",
      "outputs": [
        {
          "name": "",
          "type": "address"
        }
      ],
      "payable": false,
      "stateMutability": "view",
      "type": "function"
    },
    {
      "inputs": [],
      "payable": false,
      "stateMutability": "nonpayable",
      "type": "constructor"
    },
    {
      "constant": false,
      "inputs": [
        {
          "name": "ballotAdr",
          "type": "address"
        }
      ],
      "name": "setBallotAddress",
      "outputs": [],
      "payable": false,
      "stateMutability": "nonpayable",
      "type": "function"
    },
    {
      "constant": false,
      "inputs": [
        {
          "name": "ID",
          "type": "string"
        },
        {
          "name": "state",
          "type": "bytes32"
        }
      ],
      "name": "register",
      "outputs": [],
      "payable": false,
      "stateMutability": "nonpayable",
      "type": "function"
    },
    {
      "constant": true,
      "inputs": [],
      "name": "getRegisteredID",
      "outputs": [
        {
          "name": "",
          "type": "string"
        }
      ],
      "payable": false,
      "stateMutability": "view",
      "type": "function"
    }
  ],
  "bytecode": "0x60606040526009600455341561001457600080fd5b33600160006101000a81548173ffffffffffffffffffffffffffffffffffffffff021916908373ffffffffffffffffffffffffffffffffffffffff16021790555061076c806100646000396000f30060606040526004361061006d576000357c0100000000000000000000000000000000000000000000000000000000900463ffffffff16806302d05d3f146100725780633be5b497146100c7578063656afdee14610100578063c3d478b41461016a578063d8335b53146101f8575b600080fd5b341561007d57600080fd5b61008561024d565b604051808273ffffffffffffffffffffffffffffffffffffffff1673ffffffffffffffffffffffffffffffffffffffff16815260200191505060405180910390f35b34156100d257600080fd5b6100fe600480803573ffffffffffffffffffffffffffffffffffffffff16906020019091905050610273565b005b341561010b57600080fd5b610168600480803590602001908201803590602001908080601f0160208091040260200160405190810160405280939291908181526020018383808284378201915050505050509190803560001916906020019091905050610376565b005b341561017557600080fd5b61017d61057d565b6040518080602001828103825283818151815260200191508051906020019080838360005b838110156101bd5780820151818401526020810190506101a2565b50505050905090810190601f1680156101ea5780820380516001836020036101000a031916815260200191505b509250505060405180910390f35b341561020357600080fd5b61020b610661565b604051808273ffffffffffffffffffffffffffffffffffffffff1673ffffffffffffffffffffffffffffffffffffffff16815260200191505060405180910390f35b600160009054906101000a900473ffffffffffffffffffffffffffffffffffffffff1681565b600160009054906101000a900473ffffffffffffffffffffffffffffffffffffffff1673ffffffffffffffffffffffffffffffffffffffff163373ffffffffffffffffffffffffffffffffffffffff161415156102cf57600080fd5b80600260006101000a81548173ffffffffffffffffffffffffffffffffffffffff021916908373ffffffffffffffffffffffffffffffffffffffff160217905550600260009054906101000a900473ffffffffffffffffffffffffffffffffffffffff16600360006101000a81548173ffffffffffffffffffffffffffffffffffffffff021916908373ffffffffffffffffffffffffffffffffffffffff16021790555050565b600073ffffffffffffffffffffffffffffffffffffffff16600260009054906101000a900473ffffffffffffffffffffffffffffffffffffffff1673ffffffffffffffffffffffffffffffffffffffff16141515156103d457600080fd5b60045482511415156103e557600080fd5b60008060003373ffffffffffffffffffffffffffffffffffffffff1673ffffffffffffffffffffffffffffffffffffffff16815260200190815260200160002080546001816001161561010002031660029004905014151561044657600080fd5b816000803373ffffffffffffffffffffffffffffffffffffffff1673ffffffffffffffffffffffffffffffffffffffff1681526020019081526020016000209080519060200190610498929190610687565b50600360009054906101000a900473ffffffffffffffffffffffffffffffffffffffff1673ffffffffffffffffffffffffffffffffffffffff1663d76f92d682336040518363ffffffff167c01000000000000000000000000000000000000000000000000000000000281526004018083600019166000191681526020018273ffffffffffffffffffffffffffffffffffffffff1673ffffffffffffffffffffffffffffffffffffffff16815260200192505050600060405180830381600087803b151561056557600080fd5b6102c65a03f1151561057657600080fd5b5050505050565b610585610707565b6000803373ffffffffffffffffffffffffffffffffffffffff1673ffffffffffffffffffffffffffffffffffffffff1681526020019081526020016000208054600181600116156101000203166002900480601f0160208091040260200160405190810160405280929190818152602001828054600181600116156101000203166002900480156106575780601f1061062c57610100808354040283529160200191610657565b820191906000526020600020905b81548152906001019060200180831161063a57829003601f168201915b5050505050905090565b600260009054906101000a900473ffffffffffffffffffffffffffffffffffffffff1681565b828054600181600116156101000203166002900490600052602060002090601f016020900481019282601f106106c857805160ff19168380011785556106f6565b828001600101855582156106f6579182015b828111156106f55782518255916020019190600101906106da565b5b509050610703919061071b565b5090565b602060405190810160405280600081525090565b61073d91905b80821115610739576000816000905550600101610721565b5090565b905600a165627a7a72305820428a8bbef2be4941fcb1981e22a7957cee7010f526fe63058e8ef95a8c13a1c20029",
  "source": "pragma solidity ^0.4.17;\n// pragma experimental ABIEncoderV2;\n\ncontract Authorize {\n    mapping (address => string) private registeredAddress;\n    address public creator;\n    address public ballotAddress;\n    Ballot ballot;\n    uint EXPECTED_ID_LENGTH = 9;\n\n    function Authorize() public {\n        creator = msg.sender;\n    }\n\n    modifier ballotAddressIsSet() {\n        require(ballotAddress != address(0));\n        _;\n    }\n\n    function setBallotAddress(address ballotAdr) public {\n        require(msg.sender == creator);\n\n        ballotAddress = ballotAdr;\n        ballot = Ballot(ballotAddress);\n    }\n\n    function register(string ID, bytes32 state) public ballotAddressIsSet {\n        // Check for ID length.\n        require(bytes(ID).length == EXPECTED_ID_LENGTH);\n        // Check to make sure this address has not reg any ID.\n        require(bytes(registeredAddress[msg.sender]).length == 0);\n\n        registeredAddress[msg.sender] = ID;\n        ballot.giveRightToVote(state, msg.sender);\n    }\n    \n    function getRegisteredID() public view returns (string) {\n        return registeredAddress[msg.sender];\n    }\n}\n\ncontract Ballot {\n    struct VotePoll {\n        // Poll name\n        bytes32 name;\n        // Danh sách các proposal có trong poll này.\n        address[] proposals;\n        // Mappping quản lý xem một address nhất định có quyền vote trong poll này không.\n        mapping(address => bool) hasRightToVote;\n        // Mapping quản lý xem address đã vote chưa.\n        mapping(address => bool) hasVoted;\n        // Mapping lưu số vote của các proposal.\n        mapping(address => uint) voteCount;\n        // Bool quản lý xem poll đã được kết thúc chưa.\n        bool ended;\n        // Uint quản lý số người thắng.\n        uint winnersCount;\n    }\n\n    bytes32 SECOND_BALLOT_POLL_NAME = \"final\";\n\n    address public owner;\n    address public auth;\n    \n    bytes32[] public votePollName;\n    mapping(bytes32 => VotePoll) public votePollMap;\n\n    modifier isOwner() {\n        require(msg.sender == owner);\n        _;\n    }\n\n    modifier hasThisPollName(bytes32 pollName) {\n        bool found = false;\n        for(uint i = 0; i < votePollName.length; i++) {\n            if (keccak256(votePollName[i]) == keccak256(pollName)) {\n                found = true;\n                break;\n            }\n        }\n\n        require(found == true);\n        _;\n    }\n\n    modifier hasThisProposal(bytes32 pollName, address proposal) {\n        bool found = false;\n        for(uint i = 0; i < votePollName.length; i++) {\n            if (votePollMap[pollName].proposals[i] == proposal) {\n                found = true;\n                break;\n            }\n        }\n\n        require(found == true);\n        _;\n    }\n\n    modifier isAuth() {\n        require(msg.sender == auth);\n        _;\n    }\n\n    modifier canVote(bytes32 pollName) {\n        require(votePollMap[pollName].hasRightToVote[msg.sender] == true);\n        _;\n    }\n\n    modifier pollNotEnded(bytes32 pollName) {\n        require(votePollMap[pollName].ended == false);\n        _;\n    }\n    \n    function Ballot(address _owner) public {\n        owner = _owner;\n    }\n\n    // Set địa chỉ của Auth để Auth có thể giveRightToVote.\n    function setAuth(address _auth) public {\n        auth = _auth;\n    }\n\n    function addVotePoll(bytes32 pollName, uint winnersCount) isOwner public {\n        // Kiểm tra xem tên này đã dùng chưa.\n        for(uint i = 0; i < votePollName.length; i++) {\n            if (keccak256(votePollName[i]) == keccak256(pollName))\n                return;\n        }\n\n        votePollName.push(pollName);\n        votePollMap[pollName] = VotePoll({name: pollName, proposals: new address[](0), ended: false, winnersCount: winnersCount});\n    }\n\n    function addProposalToVotePoll(bytes32 pollName, address proposalAddress) isOwner hasThisPollName(pollName) public {\n        // Kiểm tra xem address này đã được add chưa.\n        for(uint i = 0; i < votePollMap[pollName].proposals.length; i++) {\n            if (votePollMap[pollName].proposals[i] == proposalAddress)\n                return;\n        }\n                \n        votePollMap[pollName].proposals.push(proposalAddress);\n    }\n\n    function giveRightToVote(bytes32 pollName, address voter) isAuth hasThisPollName(pollName) pollNotEnded(pollName) public {\n        votePollMap[pollName].hasRightToVote[voter] = true;\n    }    \n\n    function vote(bytes32 pollName, address proposal) hasThisPollName(pollName) \n    hasThisProposal(pollName, proposal) canVote(pollName) pollNotEnded(pollName) public {\n        votePollMap[pollName].hasVoted[msg.sender] = true;\n        votePollMap[pollName].voteCount[proposal] += 1;\n    }  \n\n    function endPoll(bytes32 pollName) isOwner hasThisPollName(pollName) public {\n        votePollMap[pollName].ended = true;\n    }\n\n    function getVotePollCount() public view returns(uint) {\n        return votePollName.length;\n    }\n\n    function getVotePollInfo(bytes32 pollName) public view returns(uint proposalCount, bool ended) {\n        // require(idx < votePollName.length);\n\n        VotePoll storage poll = votePollMap[pollName];\n        return(poll.proposals.length, poll.ended);\n    }\n\n    function getVotePollProposalInfo(uint votePollIdx, uint proposalIdx) public view returns (address proposal, uint voteCount) {\n        require(votePollIdx < votePollName.length);\n\n        VotePoll storage poll = votePollMap[votePollName[votePollIdx]];\n        require(proposalIdx < poll.proposals.length);\n\n        address adr = poll.proposals[proposalIdx];\n        return(adr, poll.voteCount[adr]);\n    }\n\n    function hasVoteRight(bytes32 pollName) hasThisPollName(pollName) public view returns(bool) {\n        return votePollMap[pollName].hasRightToVote[msg.sender];\n    }\n\n    function hasVoted(bytes32 pollName) hasThisPollName(pollName) public view returns(bool) {\n        return votePollMap[pollName].hasVoted[msg.sender];\n    }\n\n    function startSecondBallot() isOwner public {\n        addVotePoll(SECOND_BALLOT_POLL_NAME, 1);\n\n        // Cấp quyền cho các candidate thắng ở vòng 1.\n        for(uint pollIdx = 0; pollIdx < votePollName.length; pollIdx++) {\n            VotePoll storage poll = votePollMap[votePollName[pollIdx]];\n            for(uint i = 0; i < poll.winnersCount; i++) {\n                uint bestIdx = 0;\n                for(uint j = i; j < poll.proposals.length; j++) {\n                    if(poll.voteCount[poll.proposals[bestIdx]] < poll.voteCount[poll.proposals[j]])\n                        bestIdx = j;\n                }\n\n                // Cho phép candidate này vote trong vòng cuối.\n                giveRightToVote(SECOND_BALLOT_POLL_NAME, poll.proposals[bestIdx]);\n\n                // Đổi chỗ candidate này lên đầu. \n                address tmp = poll.proposals[bestIdx];\n                poll.proposals[bestIdx] = poll.proposals[i];\n                poll.proposals[i] = tmp;\n            }\n        }\n    }\n}   \n\n",
  "sourcePath": "/home/lego1st/Meow/VotingDapp/contracts/Auth.sol",
  "compiler": {
    "name": "solc",
    "version": "0.4.19+commit.c4cbbb05.Emscripten.clang"
  },
  "schemaVersion": "1.0.1",
  "updatedAt": "2018-05-06T16:25:26.341Z"
}