{
  "contractName": "Ballot",
  "abi": [
    {
      "constant": true,
      "inputs": [
        {
          "name": "votePollIdx",
          "type": "uint256"
        },
        {
          "name": "proposalIdx",
          "type": "uint256"
        }
      ],
      "name": "getVotePollProposalInfo",
      "outputs": [
        {
          "name": "proposal",
          "type": "address"
        },
        {
          "name": "voteCount",
          "type": "uint256"
        }
      ],
      "payable": false,
      "stateMutability": "view",
      "type": "function"
    },
    {
      "constant": true,
      "inputs": [
        {
          "name": "pollName",
          "type": "bytes32"
        }
      ],
      "name": "hasVoted",
      "outputs": [
        {
          "name": "",
          "type": "bool"
        }
      ],
      "payable": false,
      "stateMutability": "view",
      "type": "function"
    },
    {
      "constant": false,
      "inputs": [],
      "name": "startSecondBallot",
      "outputs": [],
      "payable": false,
      "stateMutability": "nonpayable",
      "type": "function"
    },
    {
      "constant": false,
      "inputs": [
        {
          "name": "_auth",
          "type": "address"
        }
      ],
      "name": "setAuth",
      "outputs": [],
      "payable": false,
      "stateMutability": "nonpayable",
      "type": "function"
    },
    {
      "constant": false,
      "inputs": [
        {
          "name": "pollName",
          "type": "bytes32"
        },
        {
          "name": "winnersCount",
          "type": "uint256"
        }
      ],
      "name": "addVotePoll",
      "outputs": [],
      "payable": false,
      "stateMutability": "nonpayable",
      "type": "function"
    },
    {
      "constant": true,
      "inputs": [
        {
          "name": "pollName",
          "type": "bytes32"
        }
      ],
      "name": "getVotePollInfo",
      "outputs": [
        {
          "name": "proposalCount",
          "type": "uint256"
        },
        {
          "name": "ended",
          "type": "bool"
        }
      ],
      "payable": false,
      "stateMutability": "view",
      "type": "function"
    },
    {
      "constant": false,
      "inputs": [
        {
          "name": "pollName",
          "type": "bytes32"
        },
        {
          "name": "proposal",
          "type": "address"
        }
      ],
      "name": "vote",
      "outputs": [],
      "payable": false,
      "stateMutability": "nonpayable",
      "type": "function"
    },
    {
      "constant": true,
      "inputs": [],
      "name": "owner",
      "outputs": [
        {
          "name": "",
          "type": "address"
        }
      ],
      "payable": false,
      "stateMutability": "view",
      "type": "function"
    },
    {
      "constant": true,
      "inputs": [
        {
          "name": "pollName",
          "type": "bytes32"
        }
      ],
      "name": "hasVoteRight",
      "outputs": [
        {
          "name": "",
          "type": "bool"
        }
      ],
      "payable": false,
      "stateMutability": "view",
      "type": "function"
    },
    {
      "constant": false,
      "inputs": [
        {
          "name": "pollName",
          "type": "bytes32"
        },
        {
          "name": "proposalAddress",
          "type": "address"
        }
      ],
      "name": "addProposalToVotePoll",
      "outputs": [],
      "payable": false,
      "stateMutability": "nonpayable",
      "type": "function"
    },
    {
      "constant": true,
      "inputs": [
        {
          "name": "",
          "type": "uint256"
        }
      ],
      "name": "votePollName",
      "outputs": [
        {
          "name": "",
          "type": "bytes32"
        }
      ],
      "payable": false,
      "stateMutability": "view",
      "type": "function"
    },
    {
      "constant": true,
      "inputs": [
        {
          "name": "",
          "type": "bytes32"
        }
      ],
      "name": "votePollMap",
      "outputs": [
        {
          "name": "name",
          "type": "bytes32"
        },
        {
          "name": "ended",
          "type": "bool"
        },
        {
          "name": "winnersCount",
          "type": "uint256"
        }
      ],
      "payable": false,
      "stateMutability": "view",
      "type": "function"
    },
    {
      "constant": false,
      "inputs": [
        {
          "name": "pollName",
          "type": "bytes32"
        },
        {
          "name": "voter",
          "type": "address"
        }
      ],
      "name": "giveRightToVote",
      "outputs": [],
      "payable": false,
      "stateMutability": "nonpayable",
      "type": "function"
    },
    {
      "constant": true,
      "inputs": [],
      "name": "auth",
      "outputs": [
        {
          "name": "",
          "type": "address"
        }
      ],
      "payable": false,
      "stateMutability": "view",
      "type": "function"
    },
    {
      "constant": false,
      "inputs": [
        {
          "name": "pollName",
          "type": "bytes32"
        }
      ],
      "name": "endPoll",
      "outputs": [],
      "payable": false,
      "stateMutability": "nonpayable",
      "type": "function"
    },
    {
      "constant": true,
      "inputs": [],
      "name": "getVotePollCount",
      "outputs": [
        {
          "name": "",
          "type": "uint256"
        }
      ],
      "payable": false,
      "stateMutability": "view",
      "type": "function"
    },
    {
      "inputs": [
        {
          "name": "_owner",
          "type": "address"
        }
      ],
      "payable": false,
      "stateMutability": "nonpayable",
      "type": "constructor"
    }
  ],
  "bytecode": "0x60606040527f66696e616c000000000000000000000000000000000000000000000000000000600090600019169055341561003957600080fd5b6040516020806119838339810160405280805190602001909190505080600160006101000a81548173ffffffffffffffffffffffffffffffffffffffff021916908373ffffffffffffffffffffffffffffffffffffffff160217905550506118dd806100a66000396000f3006060604052600436106100e5576000357c0100000000000000000000000000000000000000000000000000000000900463ffffffff16806217e0cb146100ea5780631b4613cb1461015d5780631e29ac0f1461019c5780632b2e05c1146101b157806336cb1c48146101ea5780635046d7c21461021a5780638d8afd3d146102605780638da5cb5b146102a6578063937253a3146102fb57806393b233371461033a578063aa138f5214610380578063b351a47d146103bf578063d76f92d614610414578063de9375f21461045a578063e0dce4f7146104af578063eff281ee146104d6575b600080fd5b34156100f557600080fd5b61011460048080359060200190919080359060200190919050506104ff565b604051808373ffffffffffffffffffffffffffffffffffffffff1673ffffffffffffffffffffffffffffffffffffffff1681526020018281526020019250505060405180910390f35b341561016857600080fd5b6101826004808035600019169060200190919050506105f3565b604051808215151515815260200191505060405180910390f35b34156101a757600080fd5b6101af61070f565b005b34156101bc57600080fd5b6101e8600480803573ffffffffffffffffffffffffffffffffffffffff16906020019091905050610aa0565b005b34156101f557600080fd5b610218600480803560001916906020019091908035906020019091905050610ae4565b005b341561022557600080fd5b61023f600480803560001916906020019091905050610cbc565b60405180838152602001821515151581526020019250505060405180910390f35b341561026b57600080fd5b6102a460048080356000191690602001909190803573ffffffffffffffffffffffffffffffffffffffff16906020019091905050610d02565b005b34156102b157600080fd5b6102b961101d565b604051808273ffffffffffffffffffffffffffffffffffffffff1673ffffffffffffffffffffffffffffffffffffffff16815260200191505060405180910390f35b341561030657600080fd5b610320600480803560001916906020019091905050611043565b604051808215151515815260200191505060405180910390f35b341561034557600080fd5b61037e60048080356000191690602001909190803573ffffffffffffffffffffffffffffffffffffffff1690602001909190505061115f565b005b341561038b57600080fd5b6103a160048080359060200190919050506113b6565b60405180826000191660001916815260200191505060405180910390f35b34156103ca57600080fd5b6103e46004808035600019169060200190919050506113da565b60405180846000191660001916815260200183151515158152602001828152602001935050505060405180910390f35b341561041f57600080fd5b61045860048080356000191690602001909190803573ffffffffffffffffffffffffffffffffffffffff16906020019091905050611411565b005b341561046557600080fd5b61046d6115cf565b604051808273ffffffffffffffffffffffffffffffffffffffff1673ffffffffffffffffffffffffffffffffffffffff16815260200191505060405180910390f35b34156104ba57600080fd5b6104d46004808035600019169060200190919050506115f5565b005b34156104e157600080fd5b6104e9611735565b6040518082815260200191505060405180910390f35b6000806000806003805490508610151561051857600080fd5b6004600060038881548110151561052b57fe5b90600052602060002090015460001916600019168152602001908152602001600020915081600101805490508510151561056457600080fd5b816001018581548110151561057557fe5b906000526020600020900160009054906101000a900473ffffffffffffffffffffffffffffffffffffffff169050808260040160008373ffffffffffffffffffffffffffffffffffffffff1673ffffffffffffffffffffffffffffffffffffffff168152602001908152602001600020549350935050509250929050565b60008160008060009150600090505b600380549050811015610689578260405180826000191660001916815260200191505060405180910390206000191660038281548110151561064057fe5b906000526020600020900154604051808260001916600019168152602001915050604051809103902060001916141561067c5760019150610689565b8080600101915050610602565b6001151582151514151561069c57600080fd5b60046000866000191660001916815260200190815260200160002060030160003373ffffffffffffffffffffffffffffffffffffffff1673ffffffffffffffffffffffffffffffffffffffff16815260200190815260200160002060009054906101000a900460ff169350505050919050565b600080600080600080600160009054906101000a900473ffffffffffffffffffffffffffffffffffffffff1673ffffffffffffffffffffffffffffffffffffffff163373ffffffffffffffffffffffffffffffffffffffff1614151561077457600080fd5b6107816000546001610ae4565b600095505b600380549050861015610a9857600460006003888154811015156107a657fe5b906000526020600020900154600019166000191681526020019081526020016000209450600093505b8460060154841015610a8b57600092508391505b846001018054905082101561090557846004016000866001018481548110151561080957fe5b906000526020600020900160009054906101000a900473ffffffffffffffffffffffffffffffffffffffff1673ffffffffffffffffffffffffffffffffffffffff1673ffffffffffffffffffffffffffffffffffffffff16815260200190815260200160002054856004016000876001018681548110151561088757fe5b906000526020600020900160009054906101000a900473ffffffffffffffffffffffffffffffffffffffff1673ffffffffffffffffffffffffffffffffffffffff1673ffffffffffffffffffffffffffffffffffffffff1681526020019081526020016000205410156108f8578192505b81806001019250506107e3565b61094d600054866001018581548110151561091c57fe5b906000526020600020900160009054906101000a900473ffffffffffffffffffffffffffffffffffffffff16611411565b846001018381548110151561095e57fe5b906000526020600020900160009054906101000a900473ffffffffffffffffffffffffffffffffffffffff169050846001018481548110151561099d57fe5b906000526020600020900160009054906101000a900473ffffffffffffffffffffffffffffffffffffffff1685600101848154811015156109da57fe5b906000526020600020900160006101000a81548173ffffffffffffffffffffffffffffffffffffffff021916908373ffffffffffffffffffffffffffffffffffffffff160217905550808560010185815481101515610a3557fe5b906000526020600020900160006101000a81548173ffffffffffffffffffffffffffffffffffffffff021916908373ffffffffffffffffffffffffffffffffffffffff16021790555083806001019450506107cf565b8580600101965050610786565b505050505050565b80600260006101000a81548173ffffffffffffffffffffffffffffffffffffffff021916908373ffffffffffffffffffffffffffffffffffffffff16021790555050565b6000600160009054906101000a900473ffffffffffffffffffffffffffffffffffffffff1673ffffffffffffffffffffffffffffffffffffffff163373ffffffffffffffffffffffffffffffffffffffff16141515610b4257600080fd5b600090505b600380549050811015610bca5782604051808260001916600019168152602001915050604051809103902060001916600382815481101515610b8557fe5b9060005260206000209001546040518082600019166000191681526020019150506040518091039020600019161415610bbd57610cb7565b8080600101915050610b47565b60038054806001018281610bde9190611742565b916000526020600020900160008590919091509060001916905550608060405190810160405280846000191681526020016000604051805910610c1e5750595b9080825280602002602001820160405250815260200160001515815260200183815250600460008560001916600019168152602001908152602001600020600082015181600001906000191690556020820151816001019080519060200190610c8892919061176e565b5060408201518160050160006101000a81548160ff021916908315150217905550606082015181600601559050505b505050565b6000806000600460008560001916600019168152602001908152602001600020905080600101805490508160050160009054906101000a900460ff169250925050915091565b8160008060009150600090505b600380549050811015610d965782604051808260001916600019168152602001915050604051809103902060001916600382815481101515610d4d57fe5b9060005260206000209001546040518082600019166000191681526020019150506040518091039020600019161415610d895760019150610d96565b8080600101915050610d0f565b60011515821515141515610da957600080fd5b848460008060009150600090505b600380549050811015610e64578273ffffffffffffffffffffffffffffffffffffffff1660046000866000191660001916815260200190815260200160002060010182815481101515610e0657fe5b906000526020600020900160009054906101000a900473ffffffffffffffffffffffffffffffffffffffff1673ffffffffffffffffffffffffffffffffffffffff161415610e575760019150610e64565b8080600101915050610db7565b60011515821515141515610e7757600080fd5b886001151560046000836000191660001916815260200190815260200160002060020160003373ffffffffffffffffffffffffffffffffffffffff1673ffffffffffffffffffffffffffffffffffffffff16815260200190815260200160002060009054906101000a900460ff161515141515610ef357600080fd5b896000151560046000836000191660001916815260200190815260200160002060050160009054906101000a900460ff161515141515610f3257600080fd5b6001600460008d6000191660001916815260200190815260200160002060030160003373ffffffffffffffffffffffffffffffffffffffff1673ffffffffffffffffffffffffffffffffffffffff16815260200190815260200160002060006101000a81548160ff0219169083151502179055506001600460008d6000191660001916815260200190815260200160002060040160008c73ffffffffffffffffffffffffffffffffffffffff1673ffffffffffffffffffffffffffffffffffffffff168152602001908152602001600020600082825401925050819055505050505050505050505050565b600160009054906101000a900473ffffffffffffffffffffffffffffffffffffffff1681565b60008160008060009150600090505b6003805490508110156110d9578260405180826000191660001916815260200191505060405180910390206000191660038281548110151561109057fe5b90600052602060002090015460405180826000191660001916815260200191505060405180910390206000191614156110cc57600191506110d9565b8080600101915050611052565b600115158215151415156110ec57600080fd5b60046000866000191660001916815260200190815260200160002060020160003373ffffffffffffffffffffffffffffffffffffffff1673ffffffffffffffffffffffffffffffffffffffff16815260200190815260200160002060009054906101000a900460ff169350505050919050565b6000600160009054906101000a900473ffffffffffffffffffffffffffffffffffffffff1673ffffffffffffffffffffffffffffffffffffffff163373ffffffffffffffffffffffffffffffffffffffff161415156111bd57600080fd5b8260008060009150600090505b600380549050811015611251578260405180826000191660001916815260200191505060405180910390206000191660038281548110151561120857fe5b90600052602060002090015460405180826000191660001916815260200191505060405180910390206000191614156112445760019150611251565b80806001019150506111ca565b6001151582151514151561126457600080fd5b600093505b6004600087600019166000191681526020019081526020016000206001018054905084101561132e578473ffffffffffffffffffffffffffffffffffffffff16600460008860001916600019168152602001908152602001600020600101858154811015156112d457fe5b906000526020600020900160009054906101000a900473ffffffffffffffffffffffffffffffffffffffff1673ffffffffffffffffffffffffffffffffffffffff161415611321576113ae565b8380600101945050611269565b600460008760001916600019168152602001908152602001600020600101805480600101828161135e91906117f8565b9160005260206000209001600087909190916101000a81548173ffffffffffffffffffffffffffffffffffffffff021916908373ffffffffffffffffffffffffffffffffffffffff160217905550505b505050505050565b6003818154811015156113c557fe5b90600052602060002090016000915090505481565b60046020528060005260406000206000915090508060000154908060050160009054906101000a900460ff16908060060154905083565b600260009054906101000a900473ffffffffffffffffffffffffffffffffffffffff1673ffffffffffffffffffffffffffffffffffffffff163373ffffffffffffffffffffffffffffffffffffffff1614151561146d57600080fd5b8160008060009150600090505b60038054905081101561150157826040518082600019166000191681526020019150506040518091039020600019166003828154811015156114b857fe5b90600052602060002090015460405180826000191660001916815260200191505060405180910390206000191614156114f45760019150611501565b808060010191505061147a565b6001151582151514151561151457600080fd5b846000151560046000836000191660001916815260200190815260200160002060050160009054906101000a900460ff16151514151561155357600080fd5b600160046000886000191660001916815260200190815260200160002060020160008773ffffffffffffffffffffffffffffffffffffffff1673ffffffffffffffffffffffffffffffffffffffff16815260200190815260200160002060006101000a81548160ff021916908315150217905550505050505050565b600260009054906101000a900473ffffffffffffffffffffffffffffffffffffffff1681565b600160009054906101000a900473ffffffffffffffffffffffffffffffffffffffff1673ffffffffffffffffffffffffffffffffffffffff163373ffffffffffffffffffffffffffffffffffffffff1614151561165157600080fd5b8060008060009150600090505b6003805490508110156116e5578260405180826000191660001916815260200191505060405180910390206000191660038281548110151561169c57fe5b90600052602060002090015460405180826000191660001916815260200191505060405180910390206000191614156116d857600191506116e5565b808060010191505061165e565b600115158215151415156116f857600080fd5b600160046000866000191660001916815260200190815260200160002060050160006101000a81548160ff02191690831515021790555050505050565b6000600380549050905090565b815481835581811511611769578183600052602060002091820191016117689190611824565b5b505050565b8280548282559060005260206000209081019282156117e7579160200282015b828111156117e65782518260006101000a81548173ffffffffffffffffffffffffffffffffffffffff021916908373ffffffffffffffffffffffffffffffffffffffff1602179055509160200191906001019061178e565b5b5090506117f49190611849565b5090565b81548183558181151161181f5781836000526020600020918201910161181e919061188c565b5b505050565b61184691905b8082111561184257600081600090555060010161182a565b5090565b90565b61188991905b8082111561188557600081816101000a81549073ffffffffffffffffffffffffffffffffffffffff02191690555060010161184f565b5090565b90565b6118ae91905b808211156118aa576000816000905550600101611892565b5090565b905600a165627a7a72305820235f684b04709ef9b861b0689b32a37a4bffebcb624febc33d0a5d1e259717c90029",
  "source": "pragma solidity ^0.4.17;\n// pragma experimental ABIEncoderV2;\n\ncontract Authorize {\n    mapping (address => string) private registeredAddress;\n    address public creator;\n    address public ballotAddress;\n    Ballot ballot;\n    uint EXPECTED_ID_LENGTH = 9;\n\n    function Authorize() public {\n        creator = msg.sender;\n    }\n\n    modifier ballotAddressIsSet() {\n        require(ballotAddress != address(0));\n        _;\n    }\n\n    function setBallotAddress(address ballotAdr) public {\n        require(msg.sender == creator);\n\n        ballotAddress = ballotAdr;\n        ballot = Ballot(ballotAddress);\n    }\n\n    function register(string ID, bytes32 state) public ballotAddressIsSet {\n        // Check for ID length.\n        require(bytes(ID).length == EXPECTED_ID_LENGTH);\n        // Check to make sure this address has not reg any ID.\n        require(bytes(registeredAddress[msg.sender]).length == 0);\n\n        registeredAddress[msg.sender] = ID;\n        ballot.giveRightToVote(state, msg.sender);\n    }\n    \n    function getRegisteredID() public view returns (string) {\n        return registeredAddress[msg.sender];\n    }\n}\n\ncontract Ballot {\n    struct VotePoll {\n        // Poll name\n        bytes32 name;\n        // Danh sách các proposal có trong poll này.\n        address[] proposals;\n        // Mappping quản lý xem một address nhất định có quyền vote trong poll này không.\n        mapping(address => bool) hasRightToVote;\n        // Mapping quản lý xem address đã vote chưa.\n        mapping(address => bool) hasVoted;\n        // Mapping lưu số vote của các proposal.\n        mapping(address => uint) voteCount;\n        // Bool quản lý xem poll đã được kết thúc chưa.\n        bool ended;\n        // Uint quản lý số người thắng.\n        uint winnersCount;\n    }\n\n    bytes32 SECOND_BALLOT_POLL_NAME = \"final\";\n\n    address public owner;\n    address public auth;\n    \n    bytes32[] public votePollName;\n    mapping(bytes32 => VotePoll) public votePollMap;\n\n    modifier isOwner() {\n        require(msg.sender == owner);\n        _;\n    }\n\n    modifier hasThisPollName(bytes32 pollName) {\n        bool found = false;\n        for(uint i = 0; i < votePollName.length; i++) {\n            if (keccak256(votePollName[i]) == keccak256(pollName)) {\n                found = true;\n                break;\n            }\n        }\n\n        require(found == true);\n        _;\n    }\n\n    modifier hasThisProposal(bytes32 pollName, address proposal) {\n        bool found = false;\n        for(uint i = 0; i < votePollName.length; i++) {\n            if (votePollMap[pollName].proposals[i] == proposal) {\n                found = true;\n                break;\n            }\n        }\n\n        require(found == true);\n        _;\n    }\n\n    modifier isAuth() {\n        require(msg.sender == auth);\n        _;\n    }\n\n    modifier canVote(bytes32 pollName) {\n        require(votePollMap[pollName].hasRightToVote[msg.sender] == true);\n        _;\n    }\n\n    modifier pollNotEnded(bytes32 pollName) {\n        require(votePollMap[pollName].ended == false);\n        _;\n    }\n    \n    function Ballot(address _owner) public {\n        owner = _owner;\n    }\n\n    // Set địa chỉ của Auth để Auth có thể giveRightToVote.\n    function setAuth(address _auth) public {\n        auth = _auth;\n    }\n\n    function addVotePoll(bytes32 pollName, uint winnersCount) isOwner public {\n        // Kiểm tra xem tên này đã dùng chưa.\n        for(uint i = 0; i < votePollName.length; i++) {\n            if (keccak256(votePollName[i]) == keccak256(pollName))\n                return;\n        }\n\n        votePollName.push(pollName);\n        votePollMap[pollName] = VotePoll({name: pollName, proposals: new address[](0), ended: false, winnersCount: winnersCount});\n    }\n\n    function addProposalToVotePoll(bytes32 pollName, address proposalAddress) isOwner hasThisPollName(pollName) public {\n        // Kiểm tra xem address này đã được add chưa.\n        for(uint i = 0; i < votePollMap[pollName].proposals.length; i++) {\n            if (votePollMap[pollName].proposals[i] == proposalAddress)\n                return;\n        }\n                \n        votePollMap[pollName].proposals.push(proposalAddress);\n    }\n\n    function giveRightToVote(bytes32 pollName, address voter) isAuth hasThisPollName(pollName) pollNotEnded(pollName) public {\n        votePollMap[pollName].hasRightToVote[voter] = true;\n    }    \n\n    function vote(bytes32 pollName, address proposal) hasThisPollName(pollName) \n    hasThisProposal(pollName, proposal) canVote(pollName) pollNotEnded(pollName) public {\n        votePollMap[pollName].hasVoted[msg.sender] = true;\n        votePollMap[pollName].voteCount[proposal] += 1;\n    }  \n\n    function endPoll(bytes32 pollName) isOwner hasThisPollName(pollName) public {\n        votePollMap[pollName].ended = true;\n    }\n\n    function getVotePollCount() public view returns(uint) {\n        return votePollName.length;\n    }\n\n    function getVotePollInfo(bytes32 pollName) public view returns(uint proposalCount, bool ended) {\n        // require(idx < votePollName.length);\n\n        VotePoll storage poll = votePollMap[pollName];\n        return(poll.proposals.length, poll.ended);\n    }\n\n    function getVotePollProposalInfo(uint votePollIdx, uint proposalIdx) public view returns (address proposal, uint voteCount) {\n        require(votePollIdx < votePollName.length);\n\n        VotePoll storage poll = votePollMap[votePollName[votePollIdx]];\n        require(proposalIdx < poll.proposals.length);\n\n        address adr = poll.proposals[proposalIdx];\n        return(adr, poll.voteCount[adr]);\n    }\n\n    function hasVoteRight(bytes32 pollName) hasThisPollName(pollName) public view returns(bool) {\n        return votePollMap[pollName].hasRightToVote[msg.sender];\n    }\n\n    function hasVoted(bytes32 pollName) hasThisPollName(pollName) public view returns(bool) {\n        return votePollMap[pollName].hasVoted[msg.sender];\n    }\n\n    function startSecondBallot() isOwner public {\n        addVotePoll(SECOND_BALLOT_POLL_NAME, 1);\n\n        // Cấp quyền cho các candidate thắng ở vòng 1.\n        for(uint pollIdx = 0; pollIdx < votePollName.length; pollIdx++) {\n            VotePoll storage poll = votePollMap[votePollName[pollIdx]];\n            for(uint i = 0; i < poll.winnersCount; i++) {\n                uint bestIdx = 0;\n                for(uint j = i; j < poll.proposals.length; j++) {\n                    if(poll.voteCount[poll.proposals[bestIdx]] < poll.voteCount[poll.proposals[j]])\n                        bestIdx = j;\n                }\n\n                // Cho phép candidate này vote trong vòng cuối.\n                giveRightToVote(SECOND_BALLOT_POLL_NAME, poll.proposals[bestIdx]);\n\n                // Đổi chỗ candidate này lên đầu. \n                address tmp = poll.proposals[bestIdx];\n                poll.proposals[bestIdx] = poll.proposals[i];\n                poll.proposals[i] = tmp;\n            }\n        }\n    }\n}   \n\n",
  "sourcePath": "/home/lego1st/Meow/VotingDapp/contracts/Auth.sol",
  "compiler": {
    "name": "solc",
    "version": "0.4.19+commit.c4cbbb05.Emscripten.clang"
  },
  "schemaVersion": "1.0.1",
  "updatedAt": "2018-05-06T16:25:26.343Z"
}